{
  "_format": "hh-sol-artifact-1",
  "contractName": "CharityDonations",
  "sourceName": "contracts/CharityDonations.sol",
  "abi": [
    {
      "inputs": [
        {
          "internalType": "address[]",
          "name": "init",
          "type": "address[]"
        }
      ],
      "stateMutability": "nonpayable",
      "type": "constructor"
    },
    {
      "anonymous": false,
      "inputs": [
        {
          "indexed": false,
          "internalType": "address",
          "name": "donor",
          "type": "address"
        },
        {
          "indexed": false,
          "internalType": "address",
          "name": "charity",
          "type": "address"
        },
        {
          "indexed": false,
          "internalType": "uint256",
          "name": "amount",
          "type": "uint256"
        }
      ],
      "name": "DonationReceived",
      "type": "event"
    },
    {
      "anonymous": false,
      "inputs": [
        {
          "indexed": true,
          "internalType": "address",
          "name": "previousOwner",
          "type": "address"
        },
        {
          "indexed": true,
          "internalType": "address",
          "name": "newOwner",
          "type": "address"
        }
      ],
      "name": "OwnershipTransferred",
      "type": "event"
    },
    {
      "inputs": [
        {
          "internalType": "address",
          "name": "c",
          "type": "address"
        }
      ],
      "name": "addCharity",
      "outputs": [],
      "stateMutability": "nonpayable",
      "type": "function"
    },
    {
      "inputs": [
        {
          "internalType": "address",
          "name": "charity",
          "type": "address"
        }
      ],
      "name": "donate",
      "outputs": [],
      "stateMutability": "payable",
      "type": "function"
    },
    {
      "inputs": [
        {
          "internalType": "address",
          "name": "",
          "type": "address"
        }
      ],
      "name": "isCharity",
      "outputs": [
        {
          "internalType": "bool",
          "name": "",
          "type": "bool"
        }
      ],
      "stateMutability": "view",
      "type": "function"
    },
    {
      "inputs": [],
      "name": "owner",
      "outputs": [
        {
          "internalType": "address",
          "name": "",
          "type": "address"
        }
      ],
      "stateMutability": "view",
      "type": "function"
    },
    {
      "inputs": [
        {
          "internalType": "address",
          "name": "c",
          "type": "address"
        }
      ],
      "name": "removeCharity",
      "outputs": [],
      "stateMutability": "nonpayable",
      "type": "function"
    },
    {
      "inputs": [],
      "name": "renounceOwnership",
      "outputs": [],
      "stateMutability": "nonpayable",
      "type": "function"
    },
    {
      "inputs": [
        {
          "internalType": "address",
          "name": "",
          "type": "address"
        }
      ],
      "name": "totalDonatedBy",
      "outputs": [
        {
          "internalType": "uint256",
          "name": "",
          "type": "uint256"
        }
      ],
      "stateMutability": "view",
      "type": "function"
    },
    {
      "inputs": [
        {
          "internalType": "address",
          "name": "",
          "type": "address"
        }
      ],
      "name": "totalDonatedTo",
      "outputs": [
        {
          "internalType": "uint256",
          "name": "",
          "type": "uint256"
        }
      ],
      "stateMutability": "view",
      "type": "function"
    },
    {
      "inputs": [
        {
          "internalType": "address",
          "name": "newOwner",
          "type": "address"
        }
      ],
      "name": "transferOwnership",
      "outputs": [],
      "stateMutability": "nonpayable",
      "type": "function"
    }
  ],
  "bytecode": "0x60806040523480156200001157600080fd5b5060405162000ead38038062000ead83398181016040528101906200003791906200029f565b620000576200004b6200011a60201b60201c565b6200012260201b60201c565b60005b815181101562000112576001806000848481518110620000a3577f4e487b7100000000000000000000000000000000000000000000000000000000600052603260045260246000fd5b602002602001015173ffffffffffffffffffffffffffffffffffffffff1673ffffffffffffffffffffffffffffffffffffffff16815260200190815260200160002060006101000a81548160ff0219169083151502179055508080620001099062000385565b9150506200005a565b50506200044b565b600033905090565b60008060009054906101000a900473ffffffffffffffffffffffffffffffffffffffff169050816000806101000a81548173ffffffffffffffffffffffffffffffffffffffff021916908373ffffffffffffffffffffffffffffffffffffffff1602179055508173ffffffffffffffffffffffffffffffffffffffff168173ffffffffffffffffffffffffffffffffffffffff167f8be0079c531659141344cd1fd0a4f28419497f9722a3daafe3b4186f6b6457e060405160405180910390a35050565b6000620001fd620001f78462000318565b620002e4565b905080838252602082019050828560208602820111156200021d57600080fd5b60005b858110156200025157816200023688826200025b565b84526020840193506020830192505060018101905062000220565b5050509392505050565b6000815190506200026c8162000431565b92915050565b600082601f8301126200028457600080fd5b815162000296848260208601620001e6565b91505092915050565b600060208284031215620002b257600080fd5b600082015167ffffffffffffffff811115620002cd57600080fd5b620002db8482850162000272565b91505092915050565b6000604051905081810181811067ffffffffffffffff821117156200030e576200030d62000402565b5b8060405250919050565b600067ffffffffffffffff82111562000336576200033562000402565b5b602082029050602081019050919050565b600062000354826200035b565b9050919050565b600073ffffffffffffffffffffffffffffffffffffffff82169050919050565b6000819050919050565b600062000392826200037b565b91507fffffffffffffffffffffffffffffffffffffffffffffffffffffffffffffffff821415620003c857620003c7620003d3565b5b600182019050919050565b7f4e487b7100000000000000000000000000000000000000000000000000000000600052601160045260246000fd5b7f4e487b7100000000000000000000000000000000000000000000000000000000600052604160045260246000fd5b6200043c8162000347565b81146200044857600080fd5b50565b610a52806200045b6000396000f3fe6080604052600436106100855760003560e01c80638da5cb5b116100595780638da5cb5b14610123578063abefe5911461014e578063daace52814610177578063e81ffbef146101b4578063f2fde38b146101f157610085565b8062362a951461008a578063715018a6146100a657806378b14f0a146100bd5780637b4424b8146100e6575b600080fd5b6100a4600480360381019061009f9190610703565b61021a565b005b3480156100b257600080fd5b506100bb6103ce565b005b3480156100c957600080fd5b506100e460048036038101906100df9190610703565b6103e2565b005b3480156100f257600080fd5b5061010d60048036038101906101089190610703565b610444565b60405161011a919061090c565b60405180910390f35b34801561012f57600080fd5b5061013861045c565b604051610145919061083f565b60405180910390f35b34801561015a57600080fd5b5061017560048036038101906101709190610703565b610485565b005b34801561018357600080fd5b5061019e60048036038101906101999190610703565b6104e8565b6040516101ab919061090c565b60405180910390f35b3480156101c057600080fd5b506101db60048036038101906101d69190610703565b610500565b6040516101e89190610891565b60405180910390f35b3480156101fd57600080fd5b5061021860048036038101906102139190610703565b610520565b005b600160008273ffffffffffffffffffffffffffffffffffffffff1673ffffffffffffffffffffffffffffffffffffffff16815260200190815260200160002060009054906101000a900460ff166102a6576040517f08c379a000000000000000000000000000000000000000000000000000000000815260040161029d906108cc565b60405180910390fd5b6000600260008373ffffffffffffffffffffffffffffffffffffffff1673ffffffffffffffffffffffffffffffffffffffff16815260200190815260200160002054905034816102f69190610938565b600260008473ffffffffffffffffffffffffffffffffffffffff1673ffffffffffffffffffffffffffffffffffffffff1681526020019081526020016000208190555034600360003373ffffffffffffffffffffffffffffffffffffffff1673ffffffffffffffffffffffffffffffffffffffff16815260200190815260200160002060008282546103889190610938565b925050819055507f509fb5d764cf5e98b9f02a3d86350f8085cedb516140098d2d6fc2eb6256ac243383346040516103c29392919061085a565b60405180910390a15050565b6103d66105a4565b6103e06000610622565b565b6103ea6105a4565b60018060008373ffffffffffffffffffffffffffffffffffffffff1673ffffffffffffffffffffffffffffffffffffffff16815260200190815260200160002060006101000a81548160ff02191690831515021790555050565b60036020528060005260406000206000915090505481565b60008060009054906101000a900473ffffffffffffffffffffffffffffffffffffffff16905090565b61048d6105a4565b6000600160008373ffffffffffffffffffffffffffffffffffffffff1673ffffffffffffffffffffffffffffffffffffffff16815260200190815260200160002060006101000a81548160ff02191690831515021790555050565b60026020528060005260406000206000915090505481565b60016020528060005260406000206000915054906101000a900460ff1681565b6105286105a4565b600073ffffffffffffffffffffffffffffffffffffffff168173ffffffffffffffffffffffffffffffffffffffff161415610598576040517f08c379a000000000000000000000000000000000000000000000000000000000815260040161058f906108ac565b60405180910390fd5b6105a181610622565b50565b6105ac6106e6565b73ffffffffffffffffffffffffffffffffffffffff166105ca61045c565b73ffffffffffffffffffffffffffffffffffffffff1614610620576040517f08c379a0000000000000000000000000000000000000000000000000000000008152600401610617906108ec565b60405180910390fd5b565b60008060009054906101000a900473ffffffffffffffffffffffffffffffffffffffff169050816000806101000a81548173ffffffffffffffffffffffffffffffffffffffff021916908373ffffffffffffffffffffffffffffffffffffffff1602179055508173ffffffffffffffffffffffffffffffffffffffff168173ffffffffffffffffffffffffffffffffffffffff167f8be0079c531659141344cd1fd0a4f28419497f9722a3daafe3b4186f6b6457e060405160405180910390a35050565b600033905090565b6000813590506106fd81610a05565b92915050565b60006020828403121561071557600080fd5b6000610723848285016106ee565b91505092915050565b6107358161098e565b82525050565b610744816109a0565b82525050565b6000610757602683610927565b91507f4f776e61626c653a206e6577206f776e657220697320746865207a65726f206160008301527f64647265737300000000000000000000000000000000000000000000000000006020830152604082019050919050565b60006107bd600d83610927565b91507f4e6f7420612063686172697479000000000000000000000000000000000000006000830152602082019050919050565b60006107fd602083610927565b91507f4f776e61626c653a2063616c6c6572206973206e6f7420746865206f776e65726000830152602082019050919050565b610839816109cc565b82525050565b6000602082019050610854600083018461072c565b92915050565b600060608201905061086f600083018661072c565b61087c602083018561072c565b6108896040830184610830565b949350505050565b60006020820190506108a6600083018461073b565b92915050565b600060208201905081810360008301526108c58161074a565b9050919050565b600060208201905081810360008301526108e5816107b0565b9050919050565b60006020820190508181036000830152610905816107f0565b9050919050565b60006020820190506109216000830184610830565b92915050565b600082825260208201905092915050565b6000610943826109cc565b915061094e836109cc565b9250827fffffffffffffffffffffffffffffffffffffffffffffffffffffffffffffffff03821115610983576109826109d6565b5b828201905092915050565b6000610999826109ac565b9050919050565b60008115159050919050565b600073ffffffffffffffffffffffffffffffffffffffff82169050919050565b6000819050919050565b7f4e487b7100000000000000000000000000000000000000000000000000000000600052601160045260246000fd5b610a0e8161098e565b8114610a1957600080fd5b5056fea2646970667358221220fdcd6abbf0abb1d5f49cbd9aa10a104c2424a509be32346a0ba57bfec14be52a64736f6c63430008000033",
  "linkReferences": {},
  "deployedLinkReferences": {}
}