{
  "_format": "hh-sol-artifact-1",
  "contractName": "CharityDonations",
  "sourceName": "contracts/CharityDonations.sol",
  "abi": [
    {
      "inputs": [
        {
          "internalType": "address[]",
          "name": "init",
          "type": "address[]"
        }
      ],
      "stateMutability": "nonpayable",
      "type": "constructor"
    },
    {
      "anonymous": false,
      "inputs": [
        {
          "indexed": true,
          "internalType": "address",
          "name": "donor",
          "type": "address"
        },
        {
          "indexed": true,
          "internalType": "address",
          "name": "charity",
          "type": "address"
        },
        {
          "indexed": false,
          "internalType": "uint256",
          "name": "amount",
          "type": "uint256"
        }
      ],
      "name": "DonationReceived",
      "type": "event"
    },
    {
      "anonymous": false,
      "inputs": [
        {
          "indexed": true,
          "internalType": "address",
          "name": "previousOwner",
          "type": "address"
        },
        {
          "indexed": true,
          "internalType": "address",
          "name": "newOwner",
          "type": "address"
        }
      ],
      "name": "OwnershipTransferred",
      "type": "event"
    },
    {
      "inputs": [
        {
          "internalType": "address",
          "name": "c",
          "type": "address"
        }
      ],
      "name": "addCharity",
      "outputs": [],
      "stateMutability": "nonpayable",
      "type": "function"
    },
    {
      "inputs": [
        {
          "internalType": "address",
          "name": "charity",
          "type": "address"
        }
      ],
      "name": "donate",
      "outputs": [],
      "stateMutability": "payable",
      "type": "function"
    },
    {
      "inputs": [
        {
          "internalType": "address",
          "name": "",
          "type": "address"
        }
      ],
      "name": "isCharity",
      "outputs": [
        {
          "internalType": "bool",
          "name": "",
          "type": "bool"
        }
      ],
      "stateMutability": "view",
      "type": "function"
    },
    {
      "inputs": [],
      "name": "owner",
      "outputs": [
        {
          "internalType": "address",
          "name": "",
          "type": "address"
        }
      ],
      "stateMutability": "view",
      "type": "function"
    },
    {
      "inputs": [
        {
          "internalType": "address",
          "name": "c",
          "type": "address"
        }
      ],
      "name": "removeCharity",
      "outputs": [],
      "stateMutability": "nonpayable",
      "type": "function"
    },
    {
      "inputs": [],
      "name": "renounceOwnership",
      "outputs": [],
      "stateMutability": "nonpayable",
      "type": "function"
    },
    {
      "inputs": [
        {
          "internalType": "address",
          "name": "",
          "type": "address"
        }
      ],
      "name": "totalDonatedBy",
      "outputs": [
        {
          "internalType": "uint256",
          "name": "",
          "type": "uint256"
        }
      ],
      "stateMutability": "view",
      "type": "function"
    },
    {
      "inputs": [
        {
          "internalType": "address",
          "name": "",
          "type": "address"
        }
      ],
      "name": "totalDonatedTo",
      "outputs": [
        {
          "internalType": "uint256",
          "name": "",
          "type": "uint256"
        }
      ],
      "stateMutability": "view",
      "type": "function"
    },
    {
      "inputs": [
        {
          "internalType": "address",
          "name": "newOwner",
          "type": "address"
        }
      ],
      "name": "transferOwnership",
      "outputs": [],
      "stateMutability": "nonpayable",
      "type": "function"
    },
    {
      "stateMutability": "payable",
      "type": "receive"
    }
  ],
  "bytecode": "0x60806040523480156200001157600080fd5b5060405162000f8738038062000f878339818101604052810190620000379190620003b0565b620000576200004b620000f660201b60201c565b620000fe60201b60201c565b60005b8151811015620000ee5760018060008484815181106200007f576200007e62000401565b5b602002602001015173ffffffffffffffffffffffffffffffffffffffff1673ffffffffffffffffffffffffffffffffffffffff16815260200190815260200160002060006101000a81548160ff0219169083151502179055508080620000e59062000469565b9150506200005a565b5050620004b6565b600033905090565b60008060009054906101000a900473ffffffffffffffffffffffffffffffffffffffff169050816000806101000a81548173ffffffffffffffffffffffffffffffffffffffff021916908373ffffffffffffffffffffffffffffffffffffffff1602179055508173ffffffffffffffffffffffffffffffffffffffff168173ffffffffffffffffffffffffffffffffffffffff167f8be0079c531659141344cd1fd0a4f28419497f9722a3daafe3b4186f6b6457e060405160405180910390a35050565b6000604051905090565b600080fd5b600080fd5b600080fd5b6000601f19601f8301169050919050565b7f4e487b7100000000000000000000000000000000000000000000000000000000600052604160045260246000fd5b6200022682620001db565b810181811067ffffffffffffffff82111715620002485762000247620001ec565b5b80604052505050565b60006200025d620001c2565b90506200026b82826200021b565b919050565b600067ffffffffffffffff8211156200028e576200028d620001ec565b5b602082029050602081019050919050565b600080fd5b600073ffffffffffffffffffffffffffffffffffffffff82169050919050565b6000620002d182620002a4565b9050919050565b620002e381620002c4565b8114620002ef57600080fd5b50565b6000815190506200030381620002d8565b92915050565b6000620003206200031a8462000270565b62000251565b905080838252602082019050602084028301858111156200034657620003456200029f565b5b835b818110156200037357806200035e8882620002f2565b84526020840193505060208101905062000348565b5050509392505050565b600082601f830112620003955762000394620001d6565b5b8151620003a784826020860162000309565b91505092915050565b600060208284031215620003c957620003c8620001cc565b5b600082015167ffffffffffffffff811115620003ea57620003e9620001d1565b5b620003f8848285016200037d565b91505092915050565b7f4e487b7100000000000000000000000000000000000000000000000000000000600052603260045260246000fd5b7f4e487b7100000000000000000000000000000000000000000000000000000000600052601160045260246000fd5b6000819050919050565b600062000476826200045f565b91507fffffffffffffffffffffffffffffffffffffffffffffffffffffffffffffffff8203620004ab57620004aa62000430565b5b600182019050919050565b610ac180620004c66000396000f3fe6080604052600436106100895760003560e01c80638da5cb5b116100595780638da5cb5b14610167578063abefe59114610192578063daace528146101bb578063e81ffbef146101f8578063f2fde38b14610235576100c9565b8062362a95146100ce578063715018a6146100ea57806378b14f0a146101015780637b4424b81461012a576100c9565b366100c9576040517f08c379a00000000000000000000000000000000000000000000000000000000081526004016100c09061077a565b60405180910390fd5b600080fd5b6100e860048036038101906100e391906107fd565b61025e565b005b3480156100f657600080fd5b506100ff6103fe565b005b34801561010d57600080fd5b50610128600480360381019061012391906107fd565b610412565b005b34801561013657600080fd5b50610151600480360381019061014c91906107fd565b610474565b60405161015e9190610843565b60405180910390f35b34801561017357600080fd5b5061017c61048c565b604051610189919061086d565b60405180910390f35b34801561019e57600080fd5b506101b960048036038101906101b491906107fd565b6104b5565b005b3480156101c757600080fd5b506101e260048036038101906101dd91906107fd565b610518565b6040516101ef9190610843565b60405180910390f35b34801561020457600080fd5b5061021f600480360381019061021a91906107fd565b610530565b60405161022c91906108a3565b60405180910390f35b34801561024157600080fd5b5061025c600480360381019061025791906107fd565b610550565b005b600160008273ffffffffffffffffffffffffffffffffffffffff1673ffffffffffffffffffffffffffffffffffffffff16815260200190815260200160002060009054906101000a900460ff166102ea576040517f08c379a00000000000000000000000000000000000000000000000000000000081526004016102e19061090a565b60405180910390fd5b34600260008373ffffffffffffffffffffffffffffffffffffffff1673ffffffffffffffffffffffffffffffffffffffff16815260200190815260200160002060008282546103399190610959565b9250508190555034600360003373ffffffffffffffffffffffffffffffffffffffff1673ffffffffffffffffffffffffffffffffffffffff168152602001908152602001600020600082825461038f9190610959565b925050819055508073ffffffffffffffffffffffffffffffffffffffff163373ffffffffffffffffffffffffffffffffffffffff167f509fb5d764cf5e98b9f02a3d86350f8085cedb516140098d2d6fc2eb6256ac24346040516103f39190610843565b60405180910390a350565b6104066105d3565b6104106000610651565b565b61041a6105d3565b60018060008373ffffffffffffffffffffffffffffffffffffffff1673ffffffffffffffffffffffffffffffffffffffff16815260200190815260200160002060006101000a81548160ff02191690831515021790555050565b60036020528060005260406000206000915090505481565b60008060009054906101000a900473ffffffffffffffffffffffffffffffffffffffff16905090565b6104bd6105d3565b6000600160008373ffffffffffffffffffffffffffffffffffffffff1673ffffffffffffffffffffffffffffffffffffffff16815260200190815260200160002060006101000a81548160ff02191690831515021790555050565b60026020528060005260406000206000915090505481565b60016020528060005260406000206000915054906101000a900460ff1681565b6105586105d3565b600073ffffffffffffffffffffffffffffffffffffffff168173ffffffffffffffffffffffffffffffffffffffff16036105c7576040517f08c379a00000000000000000000000000000000000000000000000000000000081526004016105be906109ff565b60405180910390fd5b6105d081610651565b50565b6105db610715565b73ffffffffffffffffffffffffffffffffffffffff166105f961048c565b73ffffffffffffffffffffffffffffffffffffffff161461064f576040517f08c379a000000000000000000000000000000000000000000000000000000000815260040161064690610a6b565b60405180910390fd5b565b60008060009054906101000a900473ffffffffffffffffffffffffffffffffffffffff169050816000806101000a81548173ffffffffffffffffffffffffffffffffffffffff021916908373ffffffffffffffffffffffffffffffffffffffff1602179055508173ffffffffffffffffffffffffffffffffffffffff168173ffffffffffffffffffffffffffffffffffffffff167f8be0079c531659141344cd1fd0a4f28419497f9722a3daafe3b4186f6b6457e060405160405180910390a35050565b600033905090565b600082825260208201905092915050565b7f55736520646f6e61746528292066756e6374696f6e0000000000000000000000600082015250565b600061076460158361071d565b915061076f8261072e565b602082019050919050565b6000602082019050818103600083015261079381610757565b9050919050565b600080fd5b600073ffffffffffffffffffffffffffffffffffffffff82169050919050565b60006107ca8261079f565b9050919050565b6107da816107bf565b81146107e557600080fd5b50565b6000813590506107f7816107d1565b92915050565b6000602082840312156108135761081261079a565b5b6000610821848285016107e8565b91505092915050565b6000819050919050565b61083d8161082a565b82525050565b60006020820190506108586000830184610834565b92915050565b610867816107bf565b82525050565b6000602082019050610882600083018461085e565b92915050565b60008115159050919050565b61089d81610888565b82525050565b60006020820190506108b86000830184610894565b92915050565b7f4e6f742061206368617269747900000000000000000000000000000000000000600082015250565b60006108f4600d8361071d565b91506108ff826108be565b602082019050919050565b60006020820190508181036000830152610923816108e7565b9050919050565b7f4e487b7100000000000000000000000000000000000000000000000000000000600052601160045260246000fd5b60006109648261082a565b915061096f8361082a565b92508282019050808211156109875761098661092a565b5b92915050565b7f4f776e61626c653a206e6577206f776e657220697320746865207a65726f206160008201527f6464726573730000000000000000000000000000000000000000000000000000602082015250565b60006109e960268361071d565b91506109f48261098d565b604082019050919050565b60006020820190508181036000830152610a18816109dc565b9050919050565b7f4f776e61626c653a2063616c6c6572206973206e6f7420746865206f776e6572600082015250565b6000610a5560208361071d565b9150610a6082610a1f565b602082019050919050565b60006020820190508181036000830152610a8481610a48565b905091905056fea2646970667358221220ba738b40377a20e3b0bf9975687177ccc9c12554e440c70494f9f79397a13bcf64736f6c63430008140033",
  "linkReferences": {},
  "deployedLinkReferences": {}
}