{
  "_format": "hh-sol-artifact-1",
  "contractName": "CharityManager",
  "sourceName": "contracts/CharityManager.sol",
  "abi": [
    {
      "inputs": [],
      "stateMutability": "nonpayable",
      "type": "constructor"
    },
    {
      "anonymous": false,
      "inputs": [
        {
          "indexed": true,
          "internalType": "uint256",
          "name": "causeId",
          "type": "uint256"
        },
        {
          "indexed": false,
          "internalType": "string",
          "name": "name",
          "type": "string"
        }
      ],
      "name": "CauseCreated",
      "type": "event"
    },
    {
      "anonymous": false,
      "inputs": [
        {
          "indexed": true,
          "internalType": "uint256",
          "name": "charityId",
          "type": "uint256"
        },
        {
          "indexed": true,
          "internalType": "uint256",
          "name": "causeId",
          "type": "uint256"
        }
      ],
      "name": "CharityAddedToCause",
      "type": "event"
    },
    {
      "anonymous": false,
      "inputs": [
        {
          "indexed": true,
          "internalType": "uint256",
          "name": "charityId",
          "type": "uint256"
        },
        {
          "indexed": false,
          "internalType": "string",
          "name": "name",
          "type": "string"
        },
        {
          "indexed": false,
          "internalType": "address",
          "name": "wallet",
          "type": "address"
        }
      ],
      "name": "CharityCreated",
      "type": "event"
    },
    {
      "anonymous": false,
      "inputs": [
        {
          "indexed": true,
          "internalType": "uint256",
          "name": "charityId",
          "type": "uint256"
        },
        {
          "indexed": false,
          "internalType": "bool",
          "name": "isActive",
          "type": "bool"
        }
      ],
      "name": "CharityStatusChanged",
      "type": "event"
    },
    {
      "anonymous": false,
      "inputs": [
        {
          "indexed": true,
          "internalType": "uint256",
          "name": "charityId",
          "type": "uint256"
        },
        {
          "indexed": false,
          "internalType": "address",
          "name": "donor",
          "type": "address"
        },
        {
          "indexed": false,
          "internalType": "uint256",
          "name": "amount",
          "type": "uint256"
        }
      ],
      "name": "DonationReceived",
      "type": "event"
    },
    {
      "anonymous": false,
      "inputs": [
        {
          "indexed": true,
          "internalType": "address",
          "name": "previousOwner",
          "type": "address"
        },
        {
          "indexed": true,
          "internalType": "address",
          "name": "newOwner",
          "type": "address"
        }
      ],
      "name": "OwnershipTransferred",
      "type": "event"
    },
    {
      "inputs": [],
      "name": "causeCount",
      "outputs": [
        {
          "internalType": "uint256",
          "name": "",
          "type": "uint256"
        }
      ],
      "stateMutability": "view",
      "type": "function"
    },
    {
      "inputs": [
        {
          "internalType": "uint256",
          "name": "",
          "type": "uint256"
        }
      ],
      "name": "causes",
      "outputs": [
        {
          "internalType": "string",
          "name": "name",
          "type": "string"
        },
        {
          "internalType": "string",
          "name": "description",
          "type": "string"
        }
      ],
      "stateMutability": "view",
      "type": "function"
    },
    {
      "inputs": [
        {
          "internalType": "uint256",
          "name": "",
          "type": "uint256"
        }
      ],
      "name": "charities",
      "outputs": [
        {
          "internalType": "string",
          "name": "name",
          "type": "string"
        },
        {
          "internalType": "string",
          "name": "description",
          "type": "string"
        },
        {
          "internalType": "string",
          "name": "website",
          "type": "string"
        },
        {
          "internalType": "string",
          "name": "logoUrl",
          "type": "string"
        },
        {
          "internalType": "address",
          "name": "wallet",
          "type": "address"
        },
        {
          "internalType": "uint256",
          "name": "donationCount",
          "type": "uint256"
        },
        {
          "internalType": "uint256",
          "name": "highestDonation",
          "type": "uint256"
        },
        {
          "internalType": "uint256",
          "name": "totalDonations",
          "type": "uint256"
        },
        {
          "internalType": "bool",
          "name": "isActive",
          "type": "bool"
        }
      ],
      "stateMutability": "view",
      "type": "function"
    },
    {
      "inputs": [],
      "name": "charityCount",
      "outputs": [
        {
          "internalType": "uint256",
          "name": "",
          "type": "uint256"
        }
      ],
      "stateMutability": "view",
      "type": "function"
    },
    {
      "inputs": [
        {
          "internalType": "string",
          "name": "_name",
          "type": "string"
        },
        {
          "internalType": "string",
          "name": "_description",
          "type": "string"
        }
      ],
      "name": "createCause",
      "outputs": [],
      "stateMutability": "nonpayable",
      "type": "function"
    },
    {
      "inputs": [
        {
          "internalType": "string",
          "name": "_name",
          "type": "string"
        },
        {
          "internalType": "string",
          "name": "_description",
          "type": "string"
        },
        {
          "internalType": "string",
          "name": "_website",
          "type": "string"
        },
        {
          "internalType": "string",
          "name": "_logoUrl",
          "type": "string"
        },
        {
          "internalType": "address",
          "name": "_wallet",
          "type": "address"
        },
        {
          "internalType": "uint256[]",
          "name": "_causeIds",
          "type": "uint256[]"
        }
      ],
      "name": "createCharity",
      "outputs": [],
      "stateMutability": "nonpayable",
      "type": "function"
    },
    {
      "inputs": [
        {
          "internalType": "uint256",
          "name": "_charityId",
          "type": "uint256"
        }
      ],
      "name": "donate",
      "outputs": [],
      "stateMutability": "payable",
      "type": "function"
    },
    {
      "inputs": [
        {
          "internalType": "uint256",
          "name": "_causeId",
          "type": "uint256"
        }
      ],
      "name": "getCause",
      "outputs": [
        {
          "internalType": "string",
          "name": "name",
          "type": "string"
        },
        {
          "internalType": "string",
          "name": "description",
          "type": "string"
        },
        {
          "internalType": "uint256[]",
          "name": "charityIds",
          "type": "uint256[]"
        }
      ],
      "stateMutability": "view",
      "type": "function"
    },
    {
      "inputs": [
        {
          "internalType": "uint256",
          "name": "_causeId",
          "type": "uint256"
        }
      ],
      "name": "getCharitiesByCause",
      "outputs": [
        {
          "internalType": "uint256[]",
          "name": "",
          "type": "uint256[]"
        }
      ],
      "stateMutability": "view",
      "type": "function"
    },
    {
      "inputs": [
        {
          "internalType": "uint256",
          "name": "_charityId",
          "type": "uint256"
        }
      ],
      "name": "getCharity",
      "outputs": [
        {
          "internalType": "string",
          "name": "name",
          "type": "string"
        },
        {
          "internalType": "string",
          "name": "description",
          "type": "string"
        },
        {
          "internalType": "string",
          "name": "website",
          "type": "string"
        },
        {
          "internalType": "string",
          "name": "logoUrl",
          "type": "string"
        },
        {
          "internalType": "address",
          "name": "wallet",
          "type": "address"
        },
        {
          "internalType": "uint256",
          "name": "totalDonations",
          "type": "uint256"
        },
        {
          "internalType": "uint256[]",
          "name": "causeIds",
          "type": "uint256[]"
        },
        {
          "internalType": "bool",
          "name": "isActive",
          "type": "bool"
        }
      ],
      "stateMutability": "view",
      "type": "function"
    },
    {
      "inputs": [
        {
          "internalType": "address",
          "name": "_user",
          "type": "address"
        }
      ],
      "name": "getUserDonations",
      "outputs": [
        {
          "internalType": "uint256[]",
          "name": "",
          "type": "uint256[]"
        }
      ],
      "stateMutability": "view",
      "type": "function"
    },
    {
      "inputs": [],
      "name": "owner",
      "outputs": [
        {
          "internalType": "address",
          "name": "",
          "type": "address"
        }
      ],
      "stateMutability": "view",
      "type": "function"
    },
    {
      "inputs": [],
      "name": "renounceOwnership",
      "outputs": [],
      "stateMutability": "nonpayable",
      "type": "function"
    },
    {
      "inputs": [
        {
          "internalType": "uint256",
          "name": "_charityId",
          "type": "uint256"
        },
        {
          "internalType": "bool",
          "name": "_isActive",
          "type": "bool"
        }
      ],
      "name": "setCharityStatus",
      "outputs": [],
      "stateMutability": "nonpayable",
      "type": "function"
    },
    {
      "inputs": [
        {
          "internalType": "address",
          "name": "newOwner",
          "type": "address"
        }
      ],
      "name": "transferOwnership",
      "outputs": [],
      "stateMutability": "nonpayable",
      "type": "function"
    },
    {
      "inputs": [
        {
          "internalType": "address",
          "name": "",
          "type": "address"
        },
        {
          "internalType": "uint256",
          "name": "",
          "type": "uint256"
        }
      ],
      "name": "userDonations",
      "outputs": [
        {
          "internalType": "uint256",
          "name": "",
          "type": "uint256"
        }
      ],
      "stateMutability": "view",
      "type": "function"
    }
  ],
  "bytecode": "0x60806040523480156200001157600080fd5b5062000032620000266200004f60201b60201c565b6200005760201b60201c565b60018081905550600060058190555060006006819055506200011b565b600033905090565b60008060009054906101000a900473ffffffffffffffffffffffffffffffffffffffff169050816000806101000a81548173ffffffffffffffffffffffffffffffffffffffff021916908373ffffffffffffffffffffffffffffffffffffffff1602179055508173ffffffffffffffffffffffffffffffffffffffff168173ffffffffffffffffffffffffffffffffffffffff167f8be0079c531659141344cd1fd0a4f28419497f9722a3daafe3b4186f6b6457e060405160405180910390a35050565b612bf9806200012b6000396000f3fe6080604052600436106100f25760003560e01c80638fce8dd71161008a578063f14faf6f11610059578063f14faf6f1461033e578063f2fde38b1461035a578063fb709d2e14610383578063fd67db81146103c8576100f2565b80638fce8dd71461028057806391329493146102bf578063987f62a5146102ea5780639a79edec14610313576100f2565b8063715018a6116100c6578063715018a6146101d8578063732435b2146101ef578063734de09c1461022c5780638da5cb5b14610255576100f2565b80620a00cc146100f75780630c6229c0146101345780634933e6311461015d578063538a942a1461019a575b600080fd5b34801561010357600080fd5b5061011e60048036038101906101199190611a53565b61040c565b60405161012b9190611b3e565b60405180910390f35b34801561014057600080fd5b5061015b60048036038101906101569190611b98565b6104be565b005b34801561016957600080fd5b50610184600480360381019061017f9190611c36565b610574565b6040516101919190611c85565b60405180910390f35b3480156101a657600080fd5b506101c160048036038101906101bc9190611a53565b6105a5565b6040516101cf929190611d30565b60405180910390f35b3480156101e457600080fd5b506101ed6106d9565b005b3480156101fb57600080fd5b5061021660048036038101906102119190611d67565b6106ed565b6040516102239190611b3e565b60405180910390f35b34801561023857600080fd5b50610253600480360381019061024e9190611ec9565b610784565b005b34801561026157600080fd5b5061026a6108ab565b6040516102779190611f50565b60405180910390f35b34801561028c57600080fd5b506102a760048036038101906102a29190611a53565b6108d4565b6040516102b693929190611f6b565b60405180910390f35b3480156102cb57600080fd5b506102d4610ad8565b6040516102e19190611c85565b60405180910390f35b3480156102f657600080fd5b50610311600480360381019061030c919061207f565b610ade565b005b34801561031f57600080fd5b50610328610e1d565b6040516103359190611c85565b60405180910390f35b61035860048036038101906103539190611a53565b610e23565b005b34801561036657600080fd5b50610381600480360381019061037c9190611d67565b6110f6565b005b34801561038f57600080fd5b506103aa60048036038101906103a59190611a53565b611179565b6040516103bf999897969594939291906121a7565b60405180910390f35b3480156103d457600080fd5b506103ef60048036038101906103ea9190611a53565b611414565b604051610403989796959493929190612250565b60405180910390f35b60606006548210610452576040517f08c379a00000000000000000000000000000000000000000000000000000000081526004016104499061233d565b60405180910390fd5b600360008381526020019081526020016000206002018054806020026020016040519081016040528092919081815260200182805480156104b257602002820191906000526020600020905b81548152602001906001019080831161049e575b50505050509050919050565b6104c66117fd565b600554821061050a576040517f08c379a0000000000000000000000000000000000000000000000000000000008152600401610501906123a9565b60405180910390fd5b806002600084815260200190815260200160002060090160006101000a81548160ff021916908315150217905550817fba749bd982c93bb2f7d073991d2eb0da1285241816e6fe6fbb807367231f26138260405161056891906123c9565b60405180910390a25050565b6004602052816000526040600020818154811061059057600080fd5b90600052602060002001600091509150505481565b60036020528060005260406000206000915090508060000180546105c890612413565b80601f01602080910402602001604051908101604052809291908181526020018280546105f490612413565b80156106415780601f1061061657610100808354040283529160200191610641565b820191906000526020600020905b81548152906001019060200180831161062457829003601f168201915b50505050509080600101805461065690612413565b80601f016020809104026020016040519081016040528092919081815260200182805461068290612413565b80156106cf5780601f106106a4576101008083540402835291602001916106cf565b820191906000526020600020905b8154815290600101906020018083116106b257829003601f168201915b5050505050905082565b6106e16117fd565b6106eb600061187b565b565b6060600460008373ffffffffffffffffffffffffffffffffffffffff1673ffffffffffffffffffffffffffffffffffffffff16815260200190815260200160002080548060200260200160405190810160405280929190818152602001828054801561077857602002820191906000526020600020905b815481526020019060010190808311610764575b50505050509050919050565b61078c6117fd565b600060065490506040518060600160405280848152602001838152602001600067ffffffffffffffff8111156107c5576107c4611d9e565b5b6040519080825280602002602001820160405280156107f35781602001602082028036833780820191505090505b5081525060036000838152602001908152602001600020600082015181600001908161081f91906125f0565b50602082015181600101908161083591906125f0565b50604082015181600201908051906020019061085292919061199f565b5090505060066000815480929190610869906126f1565b9190505550807f0c45fdf166ac35d4c40c8dd53a889e1e6f1f64b1c317ddddfff2fea2b0cc41b58460405161089e9190612739565b60405180910390a2505050565b60008060009054906101000a900473ffffffffffffffffffffffffffffffffffffffff16905090565b6060806060600654841061091d576040517f08c379a00000000000000000000000000000000000000000000000000000000081526004016109149061233d565b60405180910390fd5b60006003600086815260200190815260200160002060405180606001604052908160008201805461094d90612413565b80601f016020809104026020016040519081016040528092919081815260200182805461097990612413565b80156109c65780601f1061099b576101008083540402835291602001916109c6565b820191906000526020600020905b8154815290600101906020018083116109a957829003601f168201915b505050505081526020016001820180546109df90612413565b80601f0160208091040260200160405190810160405280929190818152602001828054610a0b90612413565b8015610a585780601f10610a2d57610100808354040283529160200191610a58565b820191906000526020600020905b815481529060010190602001808311610a3b57829003601f168201915b5050505050815260200160028201805480602002602001604051908101604052809291908181526020018280548015610ab057602002820191906000526020600020905b815481526020019060010190808311610a9c575b5050505050815250509050806000015181602001518260400151935093509350509193909250565b60055481565b610ae66117fd565b6000815111610b2a576040517f08c379a0000000000000000000000000000000000000000000000000000000008152600401610b21906127cd565b60405180910390fd5b600060055490506040518061014001604052808881526020018781526020018681526020018581526020018473ffffffffffffffffffffffffffffffffffffffff16815260200160008152602001600081526020016000815260200183815260200160011515815250600260008381526020019081526020016000206000820151816000019081610bbb91906125f0565b506020820151816001019081610bd191906125f0565b506040820151816002019081610be791906125f0565b506060820151816003019081610bfd91906125f0565b5060808201518160040160006101000a81548173ffffffffffffffffffffffffffffffffffffffff021916908373ffffffffffffffffffffffffffffffffffffffff16021790555060a0820151816005015560c0820151816006015560e08201518160070155610100820151816008019080519060200190610c8092919061199f565b506101208201518160090160006101000a81548160ff02191690831515021790555090505060005b8251811015610dc157600654838281518110610cc757610cc66127ed565b5b602002602001015110610d0f576040517f08c379a0000000000000000000000000000000000000000000000000000000008152600401610d069061233d565b60405180910390fd5b60036000848381518110610d2657610d256127ed565b5b60200260200101518152602001908152602001600020600201829080600181540180825580915050600190039060005260206000200160009091909190915055828181518110610d7957610d786127ed565b5b6020026020010151827f8719965b97db4f46fbd0675a64361801c8dcfc565d4b83f75ea3f8dd08a20c9360405160405180910390a38080610db9906126f1565b915050610ca8565b5060056000815480929190610dd5906126f1565b9190505550807f74d3ebb9ec8cb63c8a50cf6e75e793a0bbefce965deaa362c10acaa27fa28b228885604051610e0c92919061281c565b60405180910390a250505050505050565b60065481565b610e2b61193f565b6005548110610e6f576040517f08c379a0000000000000000000000000000000000000000000000000000000008152600401610e66906123a9565b60405180910390fd5b6002600082815260200190815260200160002060090160009054906101000a900460ff16610ed2576040517f08c379a0000000000000000000000000000000000000000000000000000000008152600401610ec990612898565b60405180910390fd5b60003411610f15576040517f08c379a0000000000000000000000000000000000000000000000000000000008152600401610f0c9061292a565b60405180910390fd5b600060026000838152602001908152602001600020905034816007016000828254610f40919061294a565b925050819055506001816005016000828254610f5c919061294a565b925050819055508060060154341115610f79573481600601819055505b600460003373ffffffffffffffffffffffffffffffffffffffff1673ffffffffffffffffffffffffffffffffffffffff16815260200190815260200160002082908060018154018082558091505060019003906000526020600020016000909190919091505560008160040160009054906101000a900473ffffffffffffffffffffffffffffffffffffffff1673ffffffffffffffffffffffffffffffffffffffff1634604051611029906129af565b60006040518083038185875af1925050503d8060008114611066576040519150601f19603f3d011682016040523d82523d6000602084013e61106b565b606091505b50509050806110af576040517f08c379a00000000000000000000000000000000000000000000000000000000081526004016110a690612a10565b60405180910390fd5b827f0b5b4c52969ff7329ecf7ee536409fda87812b15a8622bc6e8cdeab3aee14a2633346040516110e1929190612a30565b60405180910390a250506110f361198e565b50565b6110fe6117fd565b600073ffffffffffffffffffffffffffffffffffffffff168173ffffffffffffffffffffffffffffffffffffffff160361116d576040517f08c379a000000000000000000000000000000000000000000000000000000000815260040161116490612acb565b60405180910390fd5b6111768161187b565b50565b600260205280600052604060002060009150905080600001805461119c90612413565b80601f01602080910402602001604051908101604052809291908181526020018280546111c890612413565b80156112155780601f106111ea57610100808354040283529160200191611215565b820191906000526020600020905b8154815290600101906020018083116111f857829003601f168201915b50505050509080600101805461122a90612413565b80601f016020809104026020016040519081016040528092919081815260200182805461125690612413565b80156112a35780601f10611278576101008083540402835291602001916112a3565b820191906000526020600020905b81548152906001019060200180831161128657829003601f168201915b5050505050908060020180546112b890612413565b80601f01602080910402602001604051908101604052809291908181526020018280546112e490612413565b80156113315780601f1061130657610100808354040283529160200191611331565b820191906000526020600020905b81548152906001019060200180831161131457829003601f168201915b50505050509080600301805461134690612413565b80601f016020809104026020016040519081016040528092919081815260200182805461137290612413565b80156113bf5780601f10611394576101008083540402835291602001916113bf565b820191906000526020600020905b8154815290600101906020018083116113a257829003601f168201915b5050505050908060040160009054906101000a900473ffffffffffffffffffffffffffffffffffffffff16908060050154908060060154908060070154908060090160009054906101000a900460ff16905089565b606080606080600080606060006005548910611465576040517f08c379a000000000000000000000000000000000000000000000000000000000815260040161145c906123a9565b60405180910390fd5b6000600260008b81526020019081526020016000206040518061014001604052908160008201805461149690612413565b80601f01602080910402602001604051908101604052809291908181526020018280546114c290612413565b801561150f5780601f106114e45761010080835404028352916020019161150f565b820191906000526020600020905b8154815290600101906020018083116114f257829003601f168201915b5050505050815260200160018201805461152890612413565b80601f016020809104026020016040519081016040528092919081815260200182805461155490612413565b80156115a15780601f10611576576101008083540402835291602001916115a1565b820191906000526020600020905b81548152906001019060200180831161158457829003601f168201915b505050505081526020016002820180546115ba90612413565b80601f01602080910402602001604051908101604052809291908181526020018280546115e690612413565b80156116335780601f1061160857610100808354040283529160200191611633565b820191906000526020600020905b81548152906001019060200180831161161657829003601f168201915b5050505050815260200160038201805461164c90612413565b80601f016020809104026020016040519081016040528092919081815260200182805461167890612413565b80156116c55780601f1061169a576101008083540402835291602001916116c5565b820191906000526020600020905b8154815290600101906020018083116116a857829003601f168201915b505050505081526020016004820160009054906101000a900473ffffffffffffffffffffffffffffffffffffffff1673ffffffffffffffffffffffffffffffffffffffff1673ffffffffffffffffffffffffffffffffffffffff1681526020016005820154815260200160068201548152602001600782015481526020016008820180548060200260200160405190810160405280929190818152602001828054801561179157602002820191906000526020600020905b81548152602001906001019080831161177d575b505050505081526020016009820160009054906101000a900460ff1615151515815250509050806000015181602001518260400151836060015184608001518560e001518661010001518761012001519850985098509850985098509850985050919395975091939597565b611805611997565b73ffffffffffffffffffffffffffffffffffffffff166118236108ab565b73ffffffffffffffffffffffffffffffffffffffff1614611879576040517f08c379a000000000000000000000000000000000000000000000000000000000815260040161187090612b37565b60405180910390fd5b565b60008060009054906101000a900473ffffffffffffffffffffffffffffffffffffffff169050816000806101000a81548173ffffffffffffffffffffffffffffffffffffffff021916908373ffffffffffffffffffffffffffffffffffffffff1602179055508173ffffffffffffffffffffffffffffffffffffffff168173ffffffffffffffffffffffffffffffffffffffff167f8be0079c531659141344cd1fd0a4f28419497f9722a3daafe3b4186f6b6457e060405160405180910390a35050565b600260015403611984576040517f08c379a000000000000000000000000000000000000000000000000000000000815260040161197b90612ba3565b60405180910390fd5b6002600181905550565b60018081905550565b600033905090565b8280548282559060005260206000209081019282156119db579160200282015b828111156119da5782518255916020019190600101906119bf565b5b5090506119e891906119ec565b5090565b5b80821115611a055760008160009055506001016119ed565b5090565b6000604051905090565b600080fd5b600080fd5b6000819050919050565b611a3081611a1d565b8114611a3b57600080fd5b50565b600081359050611a4d81611a27565b92915050565b600060208284031215611a6957611a68611a13565b5b6000611a7784828501611a3e565b91505092915050565b600081519050919050565b600082825260208201905092915050565b6000819050602082019050919050565b611ab581611a1d565b82525050565b6000611ac78383611aac565b60208301905092915050565b6000602082019050919050565b6000611aeb82611a80565b611af58185611a8b565b9350611b0083611a9c565b8060005b83811015611b31578151611b188882611abb565b9750611b2383611ad3565b925050600181019050611b04565b5085935050505092915050565b60006020820190508181036000830152611b588184611ae0565b905092915050565b60008115159050919050565b611b7581611b60565b8114611b8057600080fd5b50565b600081359050611b9281611b6c565b92915050565b60008060408385031215611baf57611bae611a13565b5b6000611bbd85828601611a3e565b9250506020611bce85828601611b83565b9150509250929050565b600073ffffffffffffffffffffffffffffffffffffffff82169050919050565b6000611c0382611bd8565b9050919050565b611c1381611bf8565b8114611c1e57600080fd5b50565b600081359050611c3081611c0a565b92915050565b60008060408385031215611c4d57611c4c611a13565b5b6000611c5b85828601611c21565b9250506020611c6c85828601611a3e565b9150509250929050565b611c7f81611a1d565b82525050565b6000602082019050611c9a6000830184611c76565b92915050565b600081519050919050565b600082825260208201905092915050565b60005b83811015611cda578082015181840152602081019050611cbf565b60008484015250505050565b6000601f19601f8301169050919050565b6000611d0282611ca0565b611d0c8185611cab565b9350611d1c818560208601611cbc565b611d2581611ce6565b840191505092915050565b60006040820190508181036000830152611d4a8185611cf7565b90508181036020830152611d5e8184611cf7565b90509392505050565b600060208284031215611d7d57611d7c611a13565b5b6000611d8b84828501611c21565b91505092915050565b600080fd5b600080fd5b7f4e487b7100000000000000000000000000000000000000000000000000000000600052604160045260246000fd5b611dd682611ce6565b810181811067ffffffffffffffff82111715611df557611df4611d9e565b5b80604052505050565b6000611e08611a09565b9050611e148282611dcd565b919050565b600067ffffffffffffffff821115611e3457611e33611d9e565b5b611e3d82611ce6565b9050602081019050919050565b82818337600083830152505050565b6000611e6c611e6784611e19565b611dfe565b905082815260208101848484011115611e8857611e87611d99565b5b611e93848285611e4a565b509392505050565b600082601f830112611eb057611eaf611d94565b5b8135611ec0848260208601611e59565b91505092915050565b60008060408385031215611ee057611edf611a13565b5b600083013567ffffffffffffffff811115611efe57611efd611a18565b5b611f0a85828601611e9b565b925050602083013567ffffffffffffffff811115611f2b57611f2a611a18565b5b611f3785828601611e9b565b9150509250929050565b611f4a81611bf8565b82525050565b6000602082019050611f656000830184611f41565b92915050565b60006060820190508181036000830152611f858186611cf7565b90508181036020830152611f998185611cf7565b90508181036040830152611fad8184611ae0565b9050949350505050565b600067ffffffffffffffff821115611fd257611fd1611d9e565b5b602082029050602081019050919050565b600080fd5b6000611ffb611ff684611fb7565b611dfe565b9050808382526020820190506020840283018581111561201e5761201d611fe3565b5b835b8181101561204757806120338882611a3e565b845260208401935050602081019050612020565b5050509392505050565b600082601f83011261206657612065611d94565b5b8135612076848260208601611fe8565b91505092915050565b60008060008060008060c0878903121561209c5761209b611a13565b5b600087013567ffffffffffffffff8111156120ba576120b9611a18565b5b6120c689828a01611e9b565b965050602087013567ffffffffffffffff8111156120e7576120e6611a18565b5b6120f389828a01611e9b565b955050604087013567ffffffffffffffff81111561211457612113611a18565b5b61212089828a01611e9b565b945050606087013567ffffffffffffffff81111561214157612140611a18565b5b61214d89828a01611e9b565b935050608061215e89828a01611c21565b92505060a087013567ffffffffffffffff81111561217f5761217e611a18565b5b61218b89828a01612051565b9150509295509295509295565b6121a181611b60565b82525050565b60006101208201905081810360008301526121c2818c611cf7565b905081810360208301526121d6818b611cf7565b905081810360408301526121ea818a611cf7565b905081810360608301526121fe8189611cf7565b905061220d6080830188611f41565b61221a60a0830187611c76565b61222760c0830186611c76565b61223460e0830185611c76565b612242610100830184612198565b9a9950505050505050505050565b600061010082019050818103600083015261226b818b611cf7565b9050818103602083015261227f818a611cf7565b905081810360408301526122938189611cf7565b905081810360608301526122a78188611cf7565b90506122b66080830187611f41565b6122c360a0830186611c76565b81810360c08301526122d58185611ae0565b90506122e460e0830184612198565b9998505050505050505050565b7f496e76616c696420636175736520494400000000000000000000000000000000600082015250565b6000612327601083611cab565b9150612332826122f1565b602082019050919050565b600060208201905081810360008301526123568161231a565b9050919050565b7f496e76616c696420636861726974792049440000000000000000000000000000600082015250565b6000612393601283611cab565b915061239e8261235d565b602082019050919050565b600060208201905081810360008301526123c281612386565b9050919050565b60006020820190506123de6000830184612198565b92915050565b7f4e487b7100000000000000000000000000000000000000000000000000000000600052602260045260246000fd5b6000600282049050600182168061242b57607f821691505b60208210810361243e5761243d6123e4565b5b50919050565b60008190508160005260206000209050919050565b60006020601f8301049050919050565b600082821b905092915050565b6000600883026124a67fffffffffffffffffffffffffffffffffffffffffffffffffffffffffffffffff82612469565b6124b08683612469565b95508019841693508086168417925050509392505050565b6000819050919050565b60006124ed6124e86124e384611a1d565b6124c8565b611a1d565b9050919050565b6000819050919050565b612507836124d2565b61251b612513826124f4565b848454612476565b825550505050565b600090565b612530612523565b61253b8184846124fe565b505050565b5b8181101561255f57612554600082612528565b600181019050612541565b5050565b601f8211156125a45761257581612444565b61257e84612459565b8101602085101561258d578190505b6125a161259985612459565b830182612540565b50505b505050565b600082821c905092915050565b60006125c7600019846008026125a9565b1980831691505092915050565b60006125e083836125b6565b9150826002028217905092915050565b6125f982611ca0565b67ffffffffffffffff81111561261257612611611d9e565b5b61261c8254612413565b612627828285612563565b600060209050601f83116001811461265a5760008415612648578287015190505b61265285826125d4565b8655506126ba565b601f19841661266886612444565b60005b828110156126905784890151825560018201915060208501945060208101905061266b565b868310156126ad57848901516126a9601f8916826125b6565b8355505b6001600288020188555050505b505050505050565b7f4e487b7100000000000000000000000000000000000000000000000000000000600052601160045260246000fd5b60006126fc82611a1d565b91507fffffffffffffffffffffffffffffffffffffffffffffffffffffffffffffffff820361272e5761272d6126c2565b5b600182019050919050565b600060208201905081810360008301526127538184611cf7565b905092915050565b7f43686172697479206d7573742062656c6f6e6720746f206174206c656173742060008201527f6f6e652063617573650000000000000000000000000000000000000000000000602082015250565b60006127b7602983611cab565b91506127c28261275b565b604082019050919050565b600060208201905081810360008301526127e6816127aa565b9050919050565b7f4e487b7100000000000000000000000000000000000000000000000000000000600052603260045260246000fd5b600060408201905081810360008301526128368185611cf7565b90506128456020830184611f41565b9392505050565b7f43686172697479206973206e6f74206163746976650000000000000000000000600082015250565b6000612882601583611cab565b915061288d8261284c565b602082019050919050565b600060208201905081810360008301526128b181612875565b9050919050565b7f446f6e6174696f6e20616d6f756e74206d75737420626520677265617465722060008201527f7468616e20300000000000000000000000000000000000000000000000000000602082015250565b6000612914602683611cab565b915061291f826128b8565b604082019050919050565b6000602082019050818103600083015261294381612907565b9050919050565b600061295582611a1d565b915061296083611a1d565b9250828201905080821115612978576129776126c2565b5b92915050565b600081905092915050565b50565b600061299960008361297e565b91506129a482612989565b600082019050919050565b60006129ba8261298c565b9150819050919050565b7f5472616e73666572206661696c65640000000000000000000000000000000000600082015250565b60006129fa600f83611cab565b9150612a05826129c4565b602082019050919050565b60006020820190508181036000830152612a29816129ed565b9050919050565b6000604082019050612a456000830185611f41565b612a526020830184611c76565b9392505050565b7f4f776e61626c653a206e6577206f776e657220697320746865207a65726f206160008201527f6464726573730000000000000000000000000000000000000000000000000000602082015250565b6000612ab5602683611cab565b9150612ac082612a59565b604082019050919050565b60006020820190508181036000830152612ae481612aa8565b9050919050565b7f4f776e61626c653a2063616c6c6572206973206e6f7420746865206f776e6572600082015250565b6000612b21602083611cab565b9150612b2c82612aeb565b602082019050919050565b60006020820190508181036000830152612b5081612b14565b9050919050565b7f5265656e7472616e637947756172643a207265656e7472616e742063616c6c00600082015250565b6000612b8d601f83611cab565b9150612b9882612b57565b602082019050919050565b60006020820190508181036000830152612bbc81612b80565b905091905056fea26469706673582212200f24dc4274e488307625c047be3f4f31bf2ea068fa82f3f0970198f76633a89b64736f6c63430008140033",
  "linkReferences": {},
  "deployedLinkReferences": {}
}