{
  "_format": "hh-sol-artifact-1",
  "contractName": "CharityManager",
  "sourceName": "contracts/CharityManager.sol",
  "abi": [
    {
      "inputs": [],
      "stateMutability": "nonpayable",
      "type": "constructor"
    },
    {
      "anonymous": false,
      "inputs": [
        {
          "indexed": true,
          "internalType": "uint256",
          "name": "causeId",
          "type": "uint256"
        },
        {
          "indexed": false,
          "internalType": "string",
          "name": "name",
          "type": "string"
        }
      ],
      "name": "CauseCreated",
      "type": "event"
    },
    {
      "anonymous": false,
      "inputs": [
        {
          "indexed": true,
          "internalType": "uint256",
          "name": "charityId",
          "type": "uint256"
        },
        {
          "indexed": true,
          "internalType": "uint256",
          "name": "causeId",
          "type": "uint256"
        }
      ],
      "name": "CharityAddedToCause",
      "type": "event"
    },
    {
      "anonymous": false,
      "inputs": [
        {
          "indexed": true,
          "internalType": "uint256",
          "name": "charityId",
          "type": "uint256"
        },
        {
          "indexed": false,
          "internalType": "string",
          "name": "name",
          "type": "string"
        },
        {
          "indexed": false,
          "internalType": "address",
          "name": "wallet",
          "type": "address"
        }
      ],
      "name": "CharityCreated",
      "type": "event"
    },
    {
      "anonymous": false,
      "inputs": [
        {
          "indexed": true,
          "internalType": "uint256",
          "name": "charityId",
          "type": "uint256"
        },
        {
          "indexed": false,
          "internalType": "bool",
          "name": "isActive",
          "type": "bool"
        }
      ],
      "name": "CharityStatusChanged",
      "type": "event"
    },
    {
      "anonymous": false,
      "inputs": [
        {
          "indexed": true,
          "internalType": "uint256",
          "name": "charityId",
          "type": "uint256"
        },
        {
          "indexed": false,
          "internalType": "address",
          "name": "donor",
          "type": "address"
        },
        {
          "indexed": false,
          "internalType": "uint256",
          "name": "amount",
          "type": "uint256"
        }
      ],
      "name": "DonationReceived",
      "type": "event"
    },
    {
      "anonymous": false,
      "inputs": [
        {
          "indexed": true,
          "internalType": "address",
          "name": "previousOwner",
          "type": "address"
        },
        {
          "indexed": true,
          "internalType": "address",
          "name": "newOwner",
          "type": "address"
        }
      ],
      "name": "OwnershipTransferred",
      "type": "event"
    },
    {
      "inputs": [],
      "name": "causeCount",
      "outputs": [
        {
          "internalType": "uint256",
          "name": "",
          "type": "uint256"
        }
      ],
      "stateMutability": "view",
      "type": "function"
    },
    {
      "inputs": [
        {
          "internalType": "uint256",
          "name": "",
          "type": "uint256"
        }
      ],
      "name": "causes",
      "outputs": [
        {
          "internalType": "string",
          "name": "name",
          "type": "string"
        },
        {
          "internalType": "string",
          "name": "description",
          "type": "string"
        }
      ],
      "stateMutability": "view",
      "type": "function"
    },
    {
      "inputs": [
        {
          "internalType": "uint256",
          "name": "",
          "type": "uint256"
        }
      ],
      "name": "charities",
      "outputs": [
        {
          "internalType": "string",
          "name": "name",
          "type": "string"
        },
        {
          "internalType": "string",
          "name": "description",
          "type": "string"
        },
        {
          "internalType": "string",
          "name": "website",
          "type": "string"
        },
        {
          "internalType": "string",
          "name": "logoUrl",
          "type": "string"
        },
        {
          "internalType": "address",
          "name": "wallet",
          "type": "address"
        },
        {
          "internalType": "uint256",
          "name": "totalDonations",
          "type": "uint256"
        },
        {
          "internalType": "bool",
          "name": "isActive",
          "type": "bool"
        }
      ],
      "stateMutability": "view",
      "type": "function"
    },
    {
      "inputs": [],
      "name": "charityCount",
      "outputs": [
        {
          "internalType": "uint256",
          "name": "",
          "type": "uint256"
        }
      ],
      "stateMutability": "view",
      "type": "function"
    },
    {
      "inputs": [
        {
          "internalType": "string",
          "name": "_name",
          "type": "string"
        },
        {
          "internalType": "string",
          "name": "_description",
          "type": "string"
        }
      ],
      "name": "createCause",
      "outputs": [],
      "stateMutability": "nonpayable",
      "type": "function"
    },
    {
      "inputs": [
        {
          "internalType": "string",
          "name": "_name",
          "type": "string"
        },
        {
          "internalType": "string",
          "name": "_description",
          "type": "string"
        },
        {
          "internalType": "string",
          "name": "_website",
          "type": "string"
        },
        {
          "internalType": "string",
          "name": "_logoUrl",
          "type": "string"
        },
        {
          "internalType": "address",
          "name": "_wallet",
          "type": "address"
        },
        {
          "internalType": "uint256[]",
          "name": "_causeIds",
          "type": "uint256[]"
        }
      ],
      "name": "createCharity",
      "outputs": [],
      "stateMutability": "nonpayable",
      "type": "function"
    },
    {
      "inputs": [
        {
          "internalType": "uint256",
          "name": "_charityId",
          "type": "uint256"
        }
      ],
      "name": "donate",
      "outputs": [],
      "stateMutability": "payable",
      "type": "function"
    },
    {
      "inputs": [
        {
          "internalType": "uint256",
          "name": "_causeId",
          "type": "uint256"
        }
      ],
      "name": "getCause",
      "outputs": [
        {
          "internalType": "string",
          "name": "name",
          "type": "string"
        },
        {
          "internalType": "string",
          "name": "description",
          "type": "string"
        },
        {
          "internalType": "uint256[]",
          "name": "charityIds",
          "type": "uint256[]"
        }
      ],
      "stateMutability": "view",
      "type": "function"
    },
    {
      "inputs": [
        {
          "internalType": "uint256",
          "name": "_causeId",
          "type": "uint256"
        }
      ],
      "name": "getCharitiesByCause",
      "outputs": [
        {
          "internalType": "uint256[]",
          "name": "",
          "type": "uint256[]"
        }
      ],
      "stateMutability": "view",
      "type": "function"
    },
    {
      "inputs": [
        {
          "internalType": "uint256",
          "name": "_charityId",
          "type": "uint256"
        }
      ],
      "name": "getCharity",
      "outputs": [
        {
          "internalType": "string",
          "name": "name",
          "type": "string"
        },
        {
          "internalType": "string",
          "name": "description",
          "type": "string"
        },
        {
          "internalType": "string",
          "name": "website",
          "type": "string"
        },
        {
          "internalType": "string",
          "name": "logoUrl",
          "type": "string"
        },
        {
          "internalType": "address",
          "name": "wallet",
          "type": "address"
        },
        {
          "internalType": "uint256",
          "name": "totalDonations",
          "type": "uint256"
        },
        {
          "internalType": "uint256[]",
          "name": "causeIds",
          "type": "uint256[]"
        },
        {
          "internalType": "bool",
          "name": "isActive",
          "type": "bool"
        }
      ],
      "stateMutability": "view",
      "type": "function"
    },
    {
      "inputs": [
        {
          "internalType": "address",
          "name": "_user",
          "type": "address"
        }
      ],
      "name": "getUserDonations",
      "outputs": [
        {
          "internalType": "uint256[]",
          "name": "",
          "type": "uint256[]"
        }
      ],
      "stateMutability": "view",
      "type": "function"
    },
    {
      "inputs": [],
      "name": "owner",
      "outputs": [
        {
          "internalType": "address",
          "name": "",
          "type": "address"
        }
      ],
      "stateMutability": "view",
      "type": "function"
    },
    {
      "inputs": [],
      "name": "renounceOwnership",
      "outputs": [],
      "stateMutability": "nonpayable",
      "type": "function"
    },
    {
      "inputs": [
        {
          "internalType": "uint256",
          "name": "_charityId",
          "type": "uint256"
        },
        {
          "internalType": "bool",
          "name": "_isActive",
          "type": "bool"
        }
      ],
      "name": "setCharityStatus",
      "outputs": [],
      "stateMutability": "nonpayable",
      "type": "function"
    },
    {
      "inputs": [
        {
          "internalType": "address",
          "name": "newOwner",
          "type": "address"
        }
      ],
      "name": "transferOwnership",
      "outputs": [],
      "stateMutability": "nonpayable",
      "type": "function"
    },
    {
      "inputs": [
        {
          "internalType": "address",
          "name": "",
          "type": "address"
        },
        {
          "internalType": "uint256",
          "name": "",
          "type": "uint256"
        }
      ],
      "name": "userDonations",
      "outputs": [
        {
          "internalType": "uint256",
          "name": "",
          "type": "uint256"
        }
      ],
      "stateMutability": "view",
      "type": "function"
    }
  ],
  "bytecode": "0x60806040523480156200001157600080fd5b5062000032620000266200004f60201b60201c565b6200005760201b60201c565b60018081905550600060058190555060006006819055506200011b565b600033905090565b60008060009054906101000a900473ffffffffffffffffffffffffffffffffffffffff169050816000806101000a81548173ffffffffffffffffffffffffffffffffffffffff021916908373ffffffffffffffffffffffffffffffffffffffff1602179055508173ffffffffffffffffffffffffffffffffffffffff168173ffffffffffffffffffffffffffffffffffffffff167f8be0079c531659141344cd1fd0a4f28419497f9722a3daafe3b4186f6b6457e060405160405180910390a35050565b612b61806200012b6000396000f3fe6080604052600436106100f25760003560e01c80638fce8dd71161008a578063f14faf6f11610059578063f14faf6f1461033e578063f2fde38b1461035a578063fb709d2e14610383578063fd67db81146103c6576100f2565b80638fce8dd71461028057806391329493146102bf578063987f62a5146102ea5780639a79edec14610313576100f2565b8063715018a6116100c6578063715018a6146101d8578063732435b2146101ef578063734de09c1461022c5780638da5cb5b14610255576100f2565b80620a00cc146100f75780630c6229c0146101345780634933e6311461015d578063538a942a1461019a575b600080fd5b34801561010357600080fd5b5061011e600480360381019061011991906119d9565b61040a565b60405161012b9190611ac4565b60405180910390f35b34801561014057600080fd5b5061015b60048036038101906101569190611b1e565b6104bc565b005b34801561016957600080fd5b50610184600480360381019061017f9190611bbc565b610572565b6040516101919190611c0b565b60405180910390f35b3480156101a657600080fd5b506101c160048036038101906101bc91906119d9565b6105a3565b6040516101cf929190611cb6565b60405180910390f35b3480156101e457600080fd5b506101ed6106d7565b005b3480156101fb57600080fd5b5061021660048036038101906102119190611ced565b6106eb565b6040516102239190611ac4565b60405180910390f35b34801561023857600080fd5b50610253600480360381019061024e9190611e4f565b610782565b005b34801561026157600080fd5b5061026a6108a9565b6040516102779190611ed6565b60405180910390f35b34801561028c57600080fd5b506102a760048036038101906102a291906119d9565b6108d2565b6040516102b693929190611ef1565b60405180910390f35b3480156102cb57600080fd5b506102d4610ad6565b6040516102e19190611c0b565b60405180910390f35b3480156102f657600080fd5b50610311600480360381019061030c9190612005565b610adc565b005b34801561031f57600080fd5b50610328610df7565b6040516103359190611c0b565b60405180910390f35b610358600480360381019061035391906119d9565b610dfd565b005b34801561036657600080fd5b50610381600480360381019061037c9190611ced565b61109e565b005b34801561038f57600080fd5b506103aa60048036038101906103a591906119d9565b611121565b6040516103bd979695949392919061212d565b60405180910390f35b3480156103d257600080fd5b506103ed60048036038101906103e891906119d9565b6113b0565b6040516104019897969594939291906121b8565b60405180910390f35b60606006548210610450576040517f08c379a0000000000000000000000000000000000000000000000000000000008152600401610447906122a5565b60405180910390fd5b600360008381526020019081526020016000206002018054806020026020016040519081016040528092919081815260200182805480156104b057602002820191906000526020600020905b81548152602001906001019080831161049c575b50505050509050919050565b6104c4611783565b6005548210610508576040517f08c379a00000000000000000000000000000000000000000000000000000000081526004016104ff90612311565b60405180910390fd5b806002600084815260200190815260200160002060070160006101000a81548160ff021916908315150217905550817fba749bd982c93bb2f7d073991d2eb0da1285241816e6fe6fbb807367231f2613826040516105669190612331565b60405180910390a25050565b6004602052816000526040600020818154811061058e57600080fd5b90600052602060002001600091509150505481565b60036020528060005260406000206000915090508060000180546105c69061237b565b80601f01602080910402602001604051908101604052809291908181526020018280546105f29061237b565b801561063f5780601f106106145761010080835404028352916020019161063f565b820191906000526020600020905b81548152906001019060200180831161062257829003601f168201915b5050505050908060010180546106549061237b565b80601f01602080910402602001604051908101604052809291908181526020018280546106809061237b565b80156106cd5780601f106106a2576101008083540402835291602001916106cd565b820191906000526020600020905b8154815290600101906020018083116106b057829003601f168201915b5050505050905082565b6106df611783565b6106e96000611801565b565b6060600460008373ffffffffffffffffffffffffffffffffffffffff1673ffffffffffffffffffffffffffffffffffffffff16815260200190815260200160002080548060200260200160405190810160405280929190818152602001828054801561077657602002820191906000526020600020905b815481526020019060010190808311610762575b50505050509050919050565b61078a611783565b600060065490506040518060600160405280848152602001838152602001600067ffffffffffffffff8111156107c3576107c2611d24565b5b6040519080825280602002602001820160405280156107f15781602001602082028036833780820191505090505b5081525060036000838152602001908152602001600020600082015181600001908161081d9190612558565b5060208201518160010190816108339190612558565b506040820151816002019080519060200190610850929190611925565b509050506006600081548092919061086790612659565b9190505550807f0c45fdf166ac35d4c40c8dd53a889e1e6f1f64b1c317ddddfff2fea2b0cc41b58460405161089c91906126a1565b60405180910390a2505050565b60008060009054906101000a900473ffffffffffffffffffffffffffffffffffffffff16905090565b6060806060600654841061091b576040517f08c379a0000000000000000000000000000000000000000000000000000000008152600401610912906122a5565b60405180910390fd5b60006003600086815260200190815260200160002060405180606001604052908160008201805461094b9061237b565b80601f01602080910402602001604051908101604052809291908181526020018280546109779061237b565b80156109c45780601f10610999576101008083540402835291602001916109c4565b820191906000526020600020905b8154815290600101906020018083116109a757829003601f168201915b505050505081526020016001820180546109dd9061237b565b80601f0160208091040260200160405190810160405280929190818152602001828054610a099061237b565b8015610a565780601f10610a2b57610100808354040283529160200191610a56565b820191906000526020600020905b815481529060010190602001808311610a3957829003601f168201915b5050505050815260200160028201805480602002602001604051908101604052809291908181526020018280548015610aae57602002820191906000526020600020905b815481526020019060010190808311610a9a575b5050505050815250509050806000015181602001518260400151935093509350509193909250565b60055481565b610ae4611783565b6000815111610b28576040517f08c379a0000000000000000000000000000000000000000000000000000000008152600401610b1f90612735565b60405180910390fd5b600060055490506040518061010001604052808881526020018781526020018681526020018581526020018473ffffffffffffffffffffffffffffffffffffffff1681526020016000815260200183815260200160011515815250600260008381526020019081526020016000206000820151816000019081610bab9190612558565b506020820151816001019081610bc19190612558565b506040820151816002019081610bd79190612558565b506060820151816003019081610bed9190612558565b5060808201518160040160006101000a81548173ffffffffffffffffffffffffffffffffffffffff021916908373ffffffffffffffffffffffffffffffffffffffff16021790555060a0820151816005015560c0820151816006019080519060200190610c5b929190611925565b5060e08201518160070160006101000a81548160ff02191690831515021790555090505060005b8251811015610d9b57600654838281518110610ca157610ca0612755565b5b602002602001015110610ce9576040517f08c379a0000000000000000000000000000000000000000000000000000000008152600401610ce0906122a5565b60405180910390fd5b60036000848381518110610d0057610cff612755565b5b60200260200101518152602001908152602001600020600201829080600181540180825580915050600190039060005260206000200160009091909190915055828181518110610d5357610d52612755565b5b6020026020010151827f8719965b97db4f46fbd0675a64361801c8dcfc565d4b83f75ea3f8dd08a20c9360405160405180910390a38080610d9390612659565b915050610c82565b5060056000815480929190610daf90612659565b9190505550807f74d3ebb9ec8cb63c8a50cf6e75e793a0bbefce965deaa362c10acaa27fa28b228885604051610de6929190612784565b60405180910390a250505050505050565b60065481565b610e056118c5565b6005548110610e49576040517f08c379a0000000000000000000000000000000000000000000000000000000008152600401610e4090612311565b60405180910390fd5b6002600082815260200190815260200160002060070160009054906101000a900460ff16610eac576040517f08c379a0000000000000000000000000000000000000000000000000000000008152600401610ea390612800565b60405180910390fd5b60003411610eef576040517f08c379a0000000000000000000000000000000000000000000000000000000008152600401610ee690612892565b60405180910390fd5b600060026000838152602001908152602001600020905034816005016000828254610f1a91906128b2565b92505081905550600460003373ffffffffffffffffffffffffffffffffffffffff1673ffffffffffffffffffffffffffffffffffffffff16815260200190815260200160002082908060018154018082558091505060019003906000526020600020016000909190919091505560008160040160009054906101000a900473ffffffffffffffffffffffffffffffffffffffff1673ffffffffffffffffffffffffffffffffffffffff1634604051610fd190612917565b60006040518083038185875af1925050503d806000811461100e576040519150601f19603f3d011682016040523d82523d6000602084013e611013565b606091505b5050905080611057576040517f08c379a000000000000000000000000000000000000000000000000000000000815260040161104e90612978565b60405180910390fd5b827f0b5b4c52969ff7329ecf7ee536409fda87812b15a8622bc6e8cdeab3aee14a263334604051611089929190612998565b60405180910390a2505061109b611914565b50565b6110a6611783565b600073ffffffffffffffffffffffffffffffffffffffff168173ffffffffffffffffffffffffffffffffffffffff1603611115576040517f08c379a000000000000000000000000000000000000000000000000000000000815260040161110c90612a33565b60405180910390fd5b61111e81611801565b50565b60026020528060005260406000206000915090508060000180546111449061237b565b80601f01602080910402602001604051908101604052809291908181526020018280546111709061237b565b80156111bd5780601f10611192576101008083540402835291602001916111bd565b820191906000526020600020905b8154815290600101906020018083116111a057829003601f168201915b5050505050908060010180546111d29061237b565b80601f01602080910402602001604051908101604052809291908181526020018280546111fe9061237b565b801561124b5780601f106112205761010080835404028352916020019161124b565b820191906000526020600020905b81548152906001019060200180831161122e57829003601f168201915b5050505050908060020180546112609061237b565b80601f016020809104026020016040519081016040528092919081815260200182805461128c9061237b565b80156112d95780601f106112ae576101008083540402835291602001916112d9565b820191906000526020600020905b8154815290600101906020018083116112bc57829003601f168201915b5050505050908060030180546112ee9061237b565b80601f016020809104026020016040519081016040528092919081815260200182805461131a9061237b565b80156113675780601f1061133c57610100808354040283529160200191611367565b820191906000526020600020905b81548152906001019060200180831161134a57829003601f168201915b5050505050908060040160009054906101000a900473ffffffffffffffffffffffffffffffffffffffff16908060050154908060070160009054906101000a900460ff16905087565b606080606080600080606060006005548910611401576040517f08c379a00000000000000000000000000000000000000000000000000000000081526004016113f890612311565b60405180910390fd5b6000600260008b8152602001908152602001600020604051806101000160405290816000820180546114329061237b565b80601f016020809104026020016040519081016040528092919081815260200182805461145e9061237b565b80156114ab5780601f10611480576101008083540402835291602001916114ab565b820191906000526020600020905b81548152906001019060200180831161148e57829003601f168201915b505050505081526020016001820180546114c49061237b565b80601f01602080910402602001604051908101604052809291908181526020018280546114f09061237b565b801561153d5780601f106115125761010080835404028352916020019161153d565b820191906000526020600020905b81548152906001019060200180831161152057829003601f168201915b505050505081526020016002820180546115569061237b565b80601f01602080910402602001604051908101604052809291908181526020018280546115829061237b565b80156115cf5780601f106115a4576101008083540402835291602001916115cf565b820191906000526020600020905b8154815290600101906020018083116115b257829003601f168201915b505050505081526020016003820180546115e89061237b565b80601f01602080910402602001604051908101604052809291908181526020018280546116149061237b565b80156116615780601f1061163657610100808354040283529160200191611661565b820191906000526020600020905b81548152906001019060200180831161164457829003601f168201915b505050505081526020016004820160009054906101000a900473ffffffffffffffffffffffffffffffffffffffff1673ffffffffffffffffffffffffffffffffffffffff1673ffffffffffffffffffffffffffffffffffffffff168152602001600582015481526020016006820180548060200260200160405190810160405280929190818152602001828054801561171957602002820191906000526020600020905b815481526020019060010190808311611705575b505050505081526020016007820160009054906101000a900460ff1615151515815250509050806000015181602001518260400151836060015184608001518560a001518660c001518760e001519850985098509850985098509850985050919395975091939597565b61178b61191d565b73ffffffffffffffffffffffffffffffffffffffff166117a96108a9565b73ffffffffffffffffffffffffffffffffffffffff16146117ff576040517f08c379a00000000000000000000000000000000000000000000000000000000081526004016117f690612a9f565b60405180910390fd5b565b60008060009054906101000a900473ffffffffffffffffffffffffffffffffffffffff169050816000806101000a81548173ffffffffffffffffffffffffffffffffffffffff021916908373ffffffffffffffffffffffffffffffffffffffff1602179055508173ffffffffffffffffffffffffffffffffffffffff168173ffffffffffffffffffffffffffffffffffffffff167f8be0079c531659141344cd1fd0a4f28419497f9722a3daafe3b4186f6b6457e060405160405180910390a35050565b60026001540361190a576040517f08c379a000000000000000000000000000000000000000000000000000000000815260040161190190612b0b565b60405180910390fd5b6002600181905550565b60018081905550565b600033905090565b828054828255906000526020600020908101928215611961579160200282015b82811115611960578251825591602001919060010190611945565b5b50905061196e9190611972565b5090565b5b8082111561198b576000816000905550600101611973565b5090565b6000604051905090565b600080fd5b600080fd5b6000819050919050565b6119b6816119a3565b81146119c157600080fd5b50565b6000813590506119d3816119ad565b92915050565b6000602082840312156119ef576119ee611999565b5b60006119fd848285016119c4565b91505092915050565b600081519050919050565b600082825260208201905092915050565b6000819050602082019050919050565b611a3b816119a3565b82525050565b6000611a4d8383611a32565b60208301905092915050565b6000602082019050919050565b6000611a7182611a06565b611a7b8185611a11565b9350611a8683611a22565b8060005b83811015611ab7578151611a9e8882611a41565b9750611aa983611a59565b925050600181019050611a8a565b5085935050505092915050565b60006020820190508181036000830152611ade8184611a66565b905092915050565b60008115159050919050565b611afb81611ae6565b8114611b0657600080fd5b50565b600081359050611b1881611af2565b92915050565b60008060408385031215611b3557611b34611999565b5b6000611b43858286016119c4565b9250506020611b5485828601611b09565b9150509250929050565b600073ffffffffffffffffffffffffffffffffffffffff82169050919050565b6000611b8982611b5e565b9050919050565b611b9981611b7e565b8114611ba457600080fd5b50565b600081359050611bb681611b90565b92915050565b60008060408385031215611bd357611bd2611999565b5b6000611be185828601611ba7565b9250506020611bf2858286016119c4565b9150509250929050565b611c05816119a3565b82525050565b6000602082019050611c206000830184611bfc565b92915050565b600081519050919050565b600082825260208201905092915050565b60005b83811015611c60578082015181840152602081019050611c45565b60008484015250505050565b6000601f19601f8301169050919050565b6000611c8882611c26565b611c928185611c31565b9350611ca2818560208601611c42565b611cab81611c6c565b840191505092915050565b60006040820190508181036000830152611cd08185611c7d565b90508181036020830152611ce48184611c7d565b90509392505050565b600060208284031215611d0357611d02611999565b5b6000611d1184828501611ba7565b91505092915050565b600080fd5b600080fd5b7f4e487b7100000000000000000000000000000000000000000000000000000000600052604160045260246000fd5b611d5c82611c6c565b810181811067ffffffffffffffff82111715611d7b57611d7a611d24565b5b80604052505050565b6000611d8e61198f565b9050611d9a8282611d53565b919050565b600067ffffffffffffffff821115611dba57611db9611d24565b5b611dc382611c6c565b9050602081019050919050565b82818337600083830152505050565b6000611df2611ded84611d9f565b611d84565b905082815260208101848484011115611e0e57611e0d611d1f565b5b611e19848285611dd0565b509392505050565b600082601f830112611e3657611e35611d1a565b5b8135611e46848260208601611ddf565b91505092915050565b60008060408385031215611e6657611e65611999565b5b600083013567ffffffffffffffff811115611e8457611e8361199e565b5b611e9085828601611e21565b925050602083013567ffffffffffffffff811115611eb157611eb061199e565b5b611ebd85828601611e21565b9150509250929050565b611ed081611b7e565b82525050565b6000602082019050611eeb6000830184611ec7565b92915050565b60006060820190508181036000830152611f0b8186611c7d565b90508181036020830152611f1f8185611c7d565b90508181036040830152611f338184611a66565b9050949350505050565b600067ffffffffffffffff821115611f5857611f57611d24565b5b602082029050602081019050919050565b600080fd5b6000611f81611f7c84611f3d565b611d84565b90508083825260208201905060208402830185811115611fa457611fa3611f69565b5b835b81811015611fcd5780611fb988826119c4565b845260208401935050602081019050611fa6565b5050509392505050565b600082601f830112611fec57611feb611d1a565b5b8135611ffc848260208601611f6e565b91505092915050565b60008060008060008060c0878903121561202257612021611999565b5b600087013567ffffffffffffffff8111156120405761203f61199e565b5b61204c89828a01611e21565b965050602087013567ffffffffffffffff81111561206d5761206c61199e565b5b61207989828a01611e21565b955050604087013567ffffffffffffffff81111561209a5761209961199e565b5b6120a689828a01611e21565b945050606087013567ffffffffffffffff8111156120c7576120c661199e565b5b6120d389828a01611e21565b93505060806120e489828a01611ba7565b92505060a087013567ffffffffffffffff8111156121055761210461199e565b5b61211189828a01611fd7565b9150509295509295509295565b61212781611ae6565b82525050565b600060e0820190508181036000830152612147818a611c7d565b9050818103602083015261215b8189611c7d565b9050818103604083015261216f8188611c7d565b905081810360608301526121838187611c7d565b90506121926080830186611ec7565b61219f60a0830185611bfc565b6121ac60c083018461211e565b98975050505050505050565b60006101008201905081810360008301526121d3818b611c7d565b905081810360208301526121e7818a611c7d565b905081810360408301526121fb8189611c7d565b9050818103606083015261220f8188611c7d565b905061221e6080830187611ec7565b61222b60a0830186611bfc565b81810360c083015261223d8185611a66565b905061224c60e083018461211e565b9998505050505050505050565b7f496e76616c696420636175736520494400000000000000000000000000000000600082015250565b600061228f601083611c31565b915061229a82612259565b602082019050919050565b600060208201905081810360008301526122be81612282565b9050919050565b7f496e76616c696420636861726974792049440000000000000000000000000000600082015250565b60006122fb601283611c31565b9150612306826122c5565b602082019050919050565b6000602082019050818103600083015261232a816122ee565b9050919050565b6000602082019050612346600083018461211e565b92915050565b7f4e487b7100000000000000000000000000000000000000000000000000000000600052602260045260246000fd5b6000600282049050600182168061239357607f821691505b6020821081036123a6576123a561234c565b5b50919050565b60008190508160005260206000209050919050565b60006020601f8301049050919050565b600082821b905092915050565b60006008830261240e7fffffffffffffffffffffffffffffffffffffffffffffffffffffffffffffffff826123d1565b61241886836123d1565b95508019841693508086168417925050509392505050565b6000819050919050565b600061245561245061244b846119a3565b612430565b6119a3565b9050919050565b6000819050919050565b61246f8361243a565b61248361247b8261245c565b8484546123de565b825550505050565b600090565b61249861248b565b6124a3818484612466565b505050565b5b818110156124c7576124bc600082612490565b6001810190506124a9565b5050565b601f82111561250c576124dd816123ac565b6124e6846123c1565b810160208510156124f5578190505b612509612501856123c1565b8301826124a8565b50505b505050565b600082821c905092915050565b600061252f60001984600802612511565b1980831691505092915050565b6000612548838361251e565b9150826002028217905092915050565b61256182611c26565b67ffffffffffffffff81111561257a57612579611d24565b5b612584825461237b565b61258f8282856124cb565b600060209050601f8311600181146125c257600084156125b0578287015190505b6125ba858261253c565b865550612622565b601f1984166125d0866123ac565b60005b828110156125f8578489015182556001820191506020850194506020810190506125d3565b868310156126155784890151612611601f89168261251e565b8355505b6001600288020188555050505b505050505050565b7f4e487b7100000000000000000000000000000000000000000000000000000000600052601160045260246000fd5b6000612664826119a3565b91507fffffffffffffffffffffffffffffffffffffffffffffffffffffffffffffffff82036126965761269561262a565b5b600182019050919050565b600060208201905081810360008301526126bb8184611c7d565b905092915050565b7f43686172697479206d7573742062656c6f6e6720746f206174206c656173742060008201527f6f6e652063617573650000000000000000000000000000000000000000000000602082015250565b600061271f602983611c31565b915061272a826126c3565b604082019050919050565b6000602082019050818103600083015261274e81612712565b9050919050565b7f4e487b7100000000000000000000000000000000000000000000000000000000600052603260045260246000fd5b6000604082019050818103600083015261279e8185611c7d565b90506127ad6020830184611ec7565b9392505050565b7f43686172697479206973206e6f74206163746976650000000000000000000000600082015250565b60006127ea601583611c31565b91506127f5826127b4565b602082019050919050565b60006020820190508181036000830152612819816127dd565b9050919050565b7f446f6e6174696f6e20616d6f756e74206d75737420626520677265617465722060008201527f7468616e20300000000000000000000000000000000000000000000000000000602082015250565b600061287c602683611c31565b915061288782612820565b604082019050919050565b600060208201905081810360008301526128ab8161286f565b9050919050565b60006128bd826119a3565b91506128c8836119a3565b92508282019050808211156128e0576128df61262a565b5b92915050565b600081905092915050565b50565b60006129016000836128e6565b915061290c826128f1565b600082019050919050565b6000612922826128f4565b9150819050919050565b7f5472616e73666572206661696c65640000000000000000000000000000000000600082015250565b6000612962600f83611c31565b915061296d8261292c565b602082019050919050565b6000602082019050818103600083015261299181612955565b9050919050565b60006040820190506129ad6000830185611ec7565b6129ba6020830184611bfc565b9392505050565b7f4f776e61626c653a206e6577206f776e657220697320746865207a65726f206160008201527f6464726573730000000000000000000000000000000000000000000000000000602082015250565b6000612a1d602683611c31565b9150612a28826129c1565b604082019050919050565b60006020820190508181036000830152612a4c81612a10565b9050919050565b7f4f776e61626c653a2063616c6c6572206973206e6f7420746865206f776e6572600082015250565b6000612a89602083611c31565b9150612a9482612a53565b602082019050919050565b60006020820190508181036000830152612ab881612a7c565b9050919050565b7f5265656e7472616e637947756172643a207265656e7472616e742063616c6c00600082015250565b6000612af5601f83611c31565b9150612b0082612abf565b602082019050919050565b60006020820190508181036000830152612b2481612ae8565b905091905056fea264697066735822122013c3f8e711849e05188e2ac348e4648f7b40f674872cbaab466e54ad52dd223364736f6c63430008140033",
  "linkReferences": {},
  "deployedLinkReferences": {}
}